:1015000036C05BC087C059C058C057C056C055C010
:1015100054C053C052C051C050C04FC04EC0090249
:1015200012000101008032090400000000000000E8
:1015300012011001FF000008091201EB0001010275
:1015400000010803450042003100200352006F00F3
:1015500062006F0074004D0061006B006500720056
:101560002E0063006C00750062000403090411245E
:101570001FBECFE5D2E0DEBFCDBF84B7877F84BF7B
:1015800088E10FB6F89481BD11BC0FBE0AEA0F9333
:1015900010E0A0E6B0E0E8EFFFE102C005900D9298
:1015A000A236B107D9F711E0A2E6B0E001C01D9262
:1015B000A832B107E1F7EDD31DC5A2CFA82FB92FEF
:1015C00080E090E041E050EA609530E009C02D9164
:1015D00082279795879510F084279527305EC8F36A
:1015E0006F5FA8F30895EADF8D939D930895A6E0B9
:1015F00088279927AA9569F00197E1F3B399FCCF61
:10160000B39BFECF81E09927A6B3019611F0A87194
:10161000D9F70895CF93CFB7CF93C0915F02CA3A5D
:1016200021F0CF91CFBFCF9169CFCC27C395B39B8A
:10163000E9F7B39B0BC0B39B09C0B39B07C0B39B37
:1016400005C0B39B03C0B39B01C0D3C00F92DF930F
:10165000C0910B01DD27CE5EDE4F012EB39B03C090
:10166000DF910F90E6CF2F930F931F934F932FEFA0
:101670004F6F06B303FB20F95F933F9350E03BE0CD
:1016800065C016B30126502953FDC89556B30127EE
:1016900003FB25F92F7306B3B1F05027102713FB76
:1016A00026F906B22230F0F000C016B3012703FB82
:1016B00027F90126502906B22430E8F54F77206833
:1016C00016B30000F6CF50274F7D206206B2102FD0
:1016D000000000C006B300265029102713FB26F98E
:1016E00006B2E2CF4F7B06B3206400C0DACF0126FA
:1016F0005029187106B269F14E7F2160012F16B38F
:1017000028C0002650294D7F06B22260102F29C024
:10171000012650294B7F06B22460012F2DC016B33D
:1017200001265029477F2860000006B22EC04F7E58
:1017300006B3206130C0422706B3499300265029E2
:10174000102706B24FEF13FB20F9297F16B379F269
:10175000187159F10126502906B2012703FB21F91E
:10176000237F06B371F2002650293150D0F006B223
:10177000102713FB22F9277E16B351F201265029B8
:10178000012703FB06B223F92F7C49F2000006B3C0
:10179000102713FB24F90026502906B22F7939F2BD
:1017A00070CF10E21ABF002717C03B503195C31B02
:1017B000D04010E21ABF0881033CF9F00B34E9F085
:1017C000209109011981110F1213EDCF093651F142
:1017D0000D3211F0013E39F7009310013F915F91F6
:1017E0004F911F910F912F91DF910F90CAB7C5FDB7
:1017F0001DCFCF91CFBFCF911895209110012223FB
:1018000069F310910E01112321F5343022F1309348
:101810000E0120930A0110910B013BE0311B309324
:101820000B0119C000910E0101309CF40AE53091C2
:10183000610034FD11C000936100CEEFD0E010C014
:10184000052710E000C021C0052710E0C89508BB9F
:1018500014C03AE501C032ED032EC0E0D0E032E022
:1018600017B31861C39A08B317BB58E120E84FEFCC
:1018700020FF052708BB279517951C3F28F7000078
:101880004552B0F720FF0527279508BB17951C3F49
:10189000B8F629913A9561F7077E10910F01110F63
:1018A00008BBC250D04011F01093090110E21ABFDA
:1018B000086017B3177E402F477E54E05A95F1F722
:1018C00008BB17BB48BB8ACF2091F9003091FA00C2
:1018D0002D3F3441B8F421E02093F600F894E091D4
:1018E000F900F091FA000C0120935700E8951124BB
:1018F00078948091F9009091FA0002969093FA0002
:101900008093F90008958091F600882309F43DC082
:101910008091F9009091FA008130954108F035C02E
:10192000F8948091F9009091FA00823C944118F16A
:1019300080916600909167008F579A409F70906CDD
:10194000EEEFF4E121E00C0120935700E89511241B
:1019500080916E0090916F008C579A409F70906CB0
:10196000ECEFF4E10C0120935700E89511247894F2
:1019700081E080936400E091F900F091FA003297E1
:1019800085E080935700E89578941092F6000895CA
:10199000FF920F931F93CF93DF9380910E0183509B
:1019A00087FD5AC190910B01ACE0B0E0A91BB109D1
:1019B000AE5EBE4F31E03093620090910A019D32DD
:1019C00009F00AC1883009F045C183EC8093FE001C
:1019D0008AE5809361001092FD008C91807609F475
:1019E0007DC01092F3001092F5001092F400119651
:1019F0002C911197213009F469C0263021F481E03F
:101A00008093FC0067C0273009F040C03093FC0091
:101A100089EE90E090930D0180930C0113969C91B8
:101A200013979093EB001092EC0012968C91129702
:101A3000803379F491114CC01496EC911497F0E036
:101A4000EE0FFF1F81E280935700E491E093EC00DA
:101A50003FC08C3A81F49038D9F514968C91149744
:101A6000811136C015968C911597811131C081E096
:101A70008093E8002DC08C3459F515968C911597FC
:101A8000811126C081E08093E70022C0283009F44C
:101A9000B6CF14968D919C9115979093FA008093F0
:101AA000F90016968C9116978093F10087EF820FBC
:101AB000843080F48FE788BD3093FB002093F200E0
:101AC0002A3051F081E08093FC0006C021E077C00D
:101AD00024E075C020E073C02FEF68C012969C917F
:101AE00012971092070111968C911197811106C0DF
:101AF0001092080187E091E022E052C0853019F48D
:101B000090930F013FC08630B9F513968C911397CF
:101B1000813019F480E395E104C0823041F48EE114
:101B200095E190930D0180930C0122E121C0833057
:101B3000F1F4911108C08AE695E190930D0180932C
:101B40000C0124E015C0913041F48AE495E19093B2
:101B50000D0180930C0120E20BC0923041F482E42D
:101B600095E190930D0180930C0128E001C020E0E5
:101B700080E48093FD0018C0883079F0893031F41A
:101B80009093110187E091E020E00AC021E08A30C3
:101B900009F020E087E091E003C081E191E021E0DD
:101BA00090930D0180930C012F3F49F48C9187FF96
:101BB00002C016962C9180E88093FD000AC017960B
:101BC0008C911797811105C016968C91821708F495
:101BD000282F209360003EC09091FD0097FF3AC0EF
:101BE0009091F100182F981708F4192F092F011B55
:101BF0000093F1001092FC008091F2008A3029F0ED
:101C0000011128C01092600025C0FA2ECA2FDB2FC8
:101C10008C2F8F198117A0F78091F9009091FA000D
:101C20008034910590F421E020936500FC01EE0FD3
:101C3000FF1FEA59FF4F28813981318320830296A3
:101C40009093FA008093F90003C0888199813CDE6B
:101C50002296DECF10920E018091610084FF7BC03E
:101C6000809160008F3F09F476C0182F893008F00A
:101C700018E0811B809360008091FE0098E889271E
:101C80008093FE00112309F45AC08091FD0087FF64
:101C900038C08091F100811708F4182F811B8093C0
:101CA000F1003091F200E091F900F091FA0020E0AB
:101CB000AFEFB0E0211700F53B3009F4FFCF39302A
:101CC000D9F7E034F10560F4EF01CC0FDD1FCA59FC
:101CD000DF4F888199818D939D932E5F3296EACF55
:101CE000EC3F84E1F80710F08FEF01C084918C93F2
:101CF00011962F5F3196DECFF093FA00E093F90052
:101D00001EC0E0910C01F0910D0186FF0BC08FEF1A
:101D100090E0DC0124912D933196212F280F2A1376
:101D2000F9CF09C08FEF90E0DC0121912D93212F95
:101D3000280F2A13FACFF0930D01E0930C01612FC5
:101D40008FEF90E050DC1C5F1C3019F08FEF809318
:101D500060001093610084E196B3987131F4815072
:101D6000D9F710920F0110920901C1E08111C0E072
:101D7000809163008C1739F0C11103C0F894F9D039
:101D80007894C0936300DF91CF911F910F91FF90E2
:101D90000895C1B7B99A83E28ABD81E083BFAC9A46
:101DA0008BB780628BBFBB9A2FE132E18AE0215072
:101DB00030408040E1F700C00000BB987894E8DD37
:101DC0008091E800882321F182E090E09093F80070
:101DD0008093F70013C0CF018F739927892B21F4CB
:101DE00083E080935700E895D3DD8091F7009091D0
:101DF000F80002969093F8008093F700E091F700C6
:101E0000F091F800E11595E1F90728F31092E80048
:101E10008091E700882329F0BBDD75DD1092E70093
:101E2000B7DD80916200882341F08091FC00811130
:101E300004C08091FB008111C2CF80916200882391
:101E400071F08091E60081110AC088B5805F88BD7D
:101E500088B5811104C08AB590E189278ABD809137
:101E6000E6008F5F8093E6008EEC90E00197F1F73B
:101E70008091F4009091F50001969093F500809385
:101E8000F4002091F300009711F42F5F00C020931D
:101E9000F30030916200311105C081323EE49307B6
:101EA00008F052C03091FC00332321F08131974279
:101EB00008F04AC080916200882309F480CF8091A5
:101EC000FB0081117CCF233008F479CF3DC0809195
:101ED0006400811141C08CEF94E19093FA008093EB
:101EE000F90081E08093F6000EDD36C0DF01AA0F15
:101EF000BB1FAA59BF4F8D919C919F012B7F232B14
:101F000029F4FB5E859194918058954FDDDCE0913A
:101F1000F900F091FA00E034F10540F3F4DC10929E
:101F20005F0217BA13BE1ABC03C081B78F5F81BFAF
:101F300081B78C17D0F303C081B7815081BF81B7BF
:101F4000C817D0F3DCCA13C015BA1BBEF894809131
:101F500065008111BCCFE3CFE0E0F0E083E0809347
:101F60005700E8951092FA001092F900D0CF80E067
:101F700090E0DF92EF92FF920F931F93CF93DF9346
:101F800008E010E0F12C80E8E82EDF2CDE0CD1BE5A
:101F90002EDBEC01C43389E0D8070CF4FD2CE69469
:101FA000015011090115110581F71F2D8FEF8F0DBC
:101FB00081BF21B730E0812F90E00196821793070F
:101FC00084F015DB8453994097FF03C09195819568
:101FD00091098C179D0714F4F1B6EC0181B78F5F5E
:101FE000E7CFF1BEDF91CF911F910F91FF90EF905E
:081FF000DF900895F894FFCF83
:021FF800FF5A8E
:0400000300001500E4
:00000001FF
